{
  "_format": "hh-sol-artifact-1",
  "contractName": "AchievementBadge",
  "sourceName": "contracts/AchievementBadge.sol",
  "abi": [
    {
      "inputs": [],
      "stateMutability": "nonpayable",
      "type": "constructor"
    },
    {
      "inputs": [
        {
          "internalType": "address",
          "name": "sender",
          "type": "address"
        },
        {
          "internalType": "uint256",
          "name": "balance",
          "type": "uint256"
        },
        {
          "internalType": "uint256",
          "name": "needed",
          "type": "uint256"
        },
        {
          "internalType": "uint256",
          "name": "tokenId",
          "type": "uint256"
        }
      ],
      "name": "ERC1155InsufficientBalance",
      "type": "error"
    },
    {
      "inputs": [
        {
          "internalType": "address",
          "name": "approver",
          "type": "address"
        }
      ],
      "name": "ERC1155InvalidApprover",
      "type": "error"
    },
    {
      "inputs": [
        {
          "internalType": "uint256",
          "name": "idsLength",
          "type": "uint256"
        },
        {
          "internalType": "uint256",
          "name": "valuesLength",
          "type": "uint256"
        }
      ],
      "name": "ERC1155InvalidArrayLength",
      "type": "error"
    },
    {
      "inputs": [
        {
          "internalType": "address",
          "name": "operator",
          "type": "address"
        }
      ],
      "name": "ERC1155InvalidOperator",
      "type": "error"
    },
    {
      "inputs": [
        {
          "internalType": "address",
          "name": "receiver",
          "type": "address"
        }
      ],
      "name": "ERC1155InvalidReceiver",
      "type": "error"
    },
    {
      "inputs": [
        {
          "internalType": "address",
          "name": "sender",
          "type": "address"
        }
      ],
      "name": "ERC1155InvalidSender",
      "type": "error"
    },
    {
      "inputs": [
        {
          "internalType": "address",
          "name": "operator",
          "type": "address"
        },
        {
          "internalType": "address",
          "name": "owner",
          "type": "address"
        }
      ],
      "name": "ERC1155MissingApprovalForAll",
      "type": "error"
    },
    {
      "inputs": [
        {
          "internalType": "address",
          "name": "owner",
          "type": "address"
        }
      ],
      "name": "OwnableInvalidOwner",
      "type": "error"
    },
    {
      "inputs": [
        {
          "internalType": "address",
          "name": "account",
          "type": "address"
        }
      ],
      "name": "OwnableUnauthorizedAccount",
      "type": "error"
    },
    {
      "anonymous": false,
      "inputs": [
        {
          "indexed": true,
          "internalType": "address",
          "name": "user",
          "type": "address"
        },
        {
          "indexed": true,
          "internalType": "uint256",
          "name": "achievementId",
          "type": "uint256"
        },
        {
          "indexed": false,
          "internalType": "uint256",
          "name": "petTokenId",
          "type": "uint256"
        },
        {
          "indexed": false,
          "internalType": "string",
          "name": "name",
          "type": "string"
        }
      ],
      "name": "AchievementEarned",
      "type": "event"
    },
    {
      "anonymous": false,
      "inputs": [
        {
          "indexed": true,
          "internalType": "address",
          "name": "account",
          "type": "address"
        },
        {
          "indexed": true,
          "internalType": "address",
          "name": "operator",
          "type": "address"
        },
        {
          "indexed": false,
          "internalType": "bool",
          "name": "approved",
          "type": "bool"
        }
      ],
      "name": "ApprovalForAll",
      "type": "event"
    },
    {
      "anonymous": false,
      "inputs": [
        {
          "indexed": true,
          "internalType": "address",
          "name": "contractAddress",
          "type": "address"
        }
      ],
      "name": "EvolvagotchiContractSet",
      "type": "event"
    },
    {
      "anonymous": false,
      "inputs": [
        {
          "indexed": true,
          "internalType": "address",
          "name": "previousOwner",
          "type": "address"
        },
        {
          "indexed": true,
          "internalType": "address",
          "name": "newOwner",
          "type": "address"
        }
      ],
      "name": "OwnershipTransferred",
      "type": "event"
    },
    {
      "anonymous": false,
      "inputs": [
        {
          "indexed": true,
          "internalType": "address",
          "name": "operator",
          "type": "address"
        },
        {
          "indexed": true,
          "internalType": "address",
          "name": "from",
          "type": "address"
        },
        {
          "indexed": true,
          "internalType": "address",
          "name": "to",
          "type": "address"
        },
        {
          "indexed": false,
          "internalType": "uint256[]",
          "name": "ids",
          "type": "uint256[]"
        },
        {
          "indexed": false,
          "internalType": "uint256[]",
          "name": "values",
          "type": "uint256[]"
        }
      ],
      "name": "TransferBatch",
      "type": "event"
    },
    {
      "anonymous": false,
      "inputs": [
        {
          "indexed": true,
          "internalType": "address",
          "name": "operator",
          "type": "address"
        },
        {
          "indexed": true,
          "internalType": "address",
          "name": "from",
          "type": "address"
        },
        {
          "indexed": true,
          "internalType": "address",
          "name": "to",
          "type": "address"
        },
        {
          "indexed": false,
          "internalType": "uint256",
          "name": "id",
          "type": "uint256"
        },
        {
          "indexed": false,
          "internalType": "uint256",
          "name": "value",
          "type": "uint256"
        }
      ],
      "name": "TransferSingle",
      "type": "event"
    },
    {
      "anonymous": false,
      "inputs": [
        {
          "indexed": false,
          "internalType": "string",
          "name": "value",
          "type": "string"
        },
        {
          "indexed": true,
          "internalType": "uint256",
          "name": "id",
          "type": "uint256"
        }
      ],
      "name": "URI",
      "type": "event"
    },
    {
      "inputs": [],
      "name": "TOTAL_ACHIEVEMENTS",
      "outputs": [
        {
          "internalType": "uint256",
          "name": "",
          "type": "uint256"
        }
      ],
      "stateMutability": "view",
      "type": "function"
    },
    {
      "inputs": [
        {
          "internalType": "uint256",
          "name": "",
          "type": "uint256"
        }
      ],
      "name": "achievements",
      "outputs": [
        {
          "internalType": "uint256",
          "name": "id",
          "type": "uint256"
        },
        {
          "internalType": "string",
          "name": "name",
          "type": "string"
        },
        {
          "internalType": "string",
          "name": "description",
          "type": "string"
        },
        {
          "internalType": "string",
          "name": "rarity",
          "type": "string"
        },
        {
          "internalType": "string",
          "name": "icon",
          "type": "string"
        },
        {
          "internalType": "uint256",
          "name": "totalEarned",
          "type": "uint256"
        }
      ],
      "stateMutability": "view",
      "type": "function"
    },
    {
      "inputs": [
        {
          "internalType": "address",
          "name": "user",
          "type": "address"
        },
        {
          "internalType": "uint256",
          "name": "achievementId",
          "type": "uint256"
        },
        {
          "internalType": "uint256",
          "name": "petTokenId",
          "type": "uint256"
        }
      ],
      "name": "awardAchievement",
      "outputs": [],
      "stateMutability": "nonpayable",
      "type": "function"
    },
    {
      "inputs": [
        {
          "internalType": "address",
          "name": "account",
          "type": "address"
        },
        {
          "internalType": "uint256",
          "name": "id",
          "type": "uint256"
        }
      ],
      "name": "balanceOf",
      "outputs": [
        {
          "internalType": "uint256",
          "name": "",
          "type": "uint256"
        }
      ],
      "stateMutability": "view",
      "type": "function"
    },
    {
      "inputs": [
        {
          "internalType": "address[]",
          "name": "accounts",
          "type": "address[]"
        },
        {
          "internalType": "uint256[]",
          "name": "ids",
          "type": "uint256[]"
        }
      ],
      "name": "balanceOfBatch",
      "outputs": [
        {
          "internalType": "uint256[]",
          "name": "",
          "type": "uint256[]"
        }
      ],
      "stateMutability": "view",
      "type": "function"
    },
    {
      "inputs": [],
      "name": "evolvagotchiContract",
      "outputs": [
        {
          "internalType": "address",
          "name": "",
          "type": "address"
        }
      ],
      "stateMutability": "view",
      "type": "function"
    },
    {
      "inputs": [
        {
          "internalType": "address",
          "name": "",
          "type": "address"
        }
      ],
      "name": "feedCount",
      "outputs": [
        {
          "internalType": "uint256",
          "name": "",
          "type": "uint256"
        }
      ],
      "stateMutability": "view",
      "type": "function"
    },
    {
      "inputs": [
        {
          "internalType": "uint256",
          "name": "achievementId",
          "type": "uint256"
        }
      ],
      "name": "getAchievementDetails",
      "outputs": [
        {
          "components": [
            {
              "internalType": "uint256",
              "name": "id",
              "type": "uint256"
            },
            {
              "internalType": "string",
              "name": "name",
              "type": "string"
            },
            {
              "internalType": "string",
              "name": "description",
              "type": "string"
            },
            {
              "internalType": "string",
              "name": "rarity",
              "type": "string"
            },
            {
              "internalType": "string",
              "name": "icon",
              "type": "string"
            },
            {
              "internalType": "uint256",
              "name": "totalEarned",
              "type": "uint256"
            }
          ],
          "internalType": "struct AchievementBadge.Achievement",
          "name": "",
          "type": "tuple"
        }
      ],
      "stateMutability": "view",
      "type": "function"
    },
    {
      "inputs": [],
      "name": "getAllAchievements",
      "outputs": [
        {
          "components": [
            {
              "internalType": "uint256",
              "name": "id",
              "type": "uint256"
            },
            {
              "internalType": "string",
              "name": "name",
              "type": "string"
            },
            {
              "internalType": "string",
              "name": "description",
              "type": "string"
            },
            {
              "internalType": "string",
              "name": "rarity",
              "type": "string"
            },
            {
              "internalType": "string",
              "name": "icon",
              "type": "string"
            },
            {
              "internalType": "uint256",
              "name": "totalEarned",
              "type": "uint256"
            }
          ],
          "internalType": "struct AchievementBadge.Achievement[]",
          "name": "",
          "type": "tuple[]"
        }
      ],
      "stateMutability": "view",
      "type": "function"
    },
    {
      "inputs": [
        {
          "internalType": "uint256",
          "name": "petTokenId",
          "type": "uint256"
        }
      ],
      "name": "getPetAchievements",
      "outputs": [
        {
          "internalType": "uint256[]",
          "name": "",
          "type": "uint256[]"
        }
      ],
      "stateMutability": "view",
      "type": "function"
    },
    {
      "inputs": [
        {
          "internalType": "address",
          "name": "user",
          "type": "address"
        }
      ],
      "name": "getUserAchievementCount",
      "outputs": [
        {
          "internalType": "uint256",
          "name": "",
          "type": "uint256"
        }
      ],
      "stateMutability": "view",
      "type": "function"
    },
    {
      "inputs": [
        {
          "internalType": "address",
          "name": "user",
          "type": "address"
        }
      ],
      "name": "getUserAchievements",
      "outputs": [
        {
          "internalType": "uint256[]",
          "name": "",
          "type": "uint256[]"
        }
      ],
      "stateMutability": "view",
      "type": "function"
    },
    {
      "inputs": [
        {
          "internalType": "address",
          "name": "user",
          "type": "address"
        },
        {
          "internalType": "uint256",
          "name": "achievementId",
          "type": "uint256"
        }
      ],
      "name": "hasEarned",
      "outputs": [
        {
          "internalType": "bool",
          "name": "",
          "type": "bool"
        }
      ],
      "stateMutability": "view",
      "type": "function"
    },
    {
      "inputs": [
        {
          "internalType": "address",
          "name": "",
          "type": "address"
        },
        {
          "internalType": "uint256",
          "name": "",
          "type": "uint256"
        }
      ],
      "name": "hasEarnedBadge",
      "outputs": [
        {
          "internalType": "bool",
          "name": "",
          "type": "bool"
        }
      ],
      "stateMutability": "view",
      "type": "function"
    },
    {
      "inputs": [
        {
          "internalType": "address",
          "name": "",
          "type": "address"
        }
      ],
      "name": "hasEvolved",
      "outputs": [
        {
          "internalType": "bool",
          "name": "",
          "type": "bool"
        }
      ],
      "stateMutability": "view",
      "type": "function"
    },
    {
      "inputs": [
        {
          "internalType": "address",
          "name": "",
          "type": "address"
        }
      ],
      "name": "hasFirstPet",
      "outputs": [
        {
          "internalType": "bool",
          "name": "",
          "type": "bool"
        }
      ],
      "stateMutability": "view",
      "type": "function"
    },
    {
      "inputs": [
        {
          "internalType": "address",
          "name": "",
          "type": "address"
        }
      ],
      "name": "hasRevived",
      "outputs": [
        {
          "internalType": "bool",
          "name": "",
          "type": "bool"
        }
      ],
      "stateMutability": "view",
      "type": "function"
    },
    {
      "inputs": [
        {
          "internalType": "address",
          "name": "account",
          "type": "address"
        },
        {
          "internalType": "address",
          "name": "operator",
          "type": "address"
        }
      ],
      "name": "isApprovedForAll",
      "outputs": [
        {
          "internalType": "bool",
          "name": "",
          "type": "bool"
        }
      ],
      "stateMutability": "view",
      "type": "function"
    },
    {
      "inputs": [],
      "name": "owner",
      "outputs": [
        {
          "internalType": "address",
          "name": "",
          "type": "address"
        }
      ],
      "stateMutability": "view",
      "type": "function"
    },
    {
      "inputs": [
        {
          "internalType": "uint256",
          "name": "",
          "type": "uint256"
        },
        {
          "internalType": "uint256",
          "name": "",
          "type": "uint256"
        }
      ],
      "name": "petHasBadge",
      "outputs": [
        {
          "internalType": "bool",
          "name": "",
          "type": "bool"
        }
      ],
      "stateMutability": "view",
      "type": "function"
    },
    {
      "inputs": [
        {
          "internalType": "address",
          "name": "",
          "type": "address"
        }
      ],
      "name": "playCount",
      "outputs": [
        {
          "internalType": "uint256",
          "name": "",
          "type": "uint256"
        }
      ],
      "stateMutability": "view",
      "type": "function"
    },
    {
      "inputs": [
        {
          "internalType": "address",
          "name": "",
          "type": "address"
        },
        {
          "internalType": "uint256",
          "name": "",
          "type": "uint256"
        }
      ],
      "name": "reachedStage",
      "outputs": [
        {
          "internalType": "bool",
          "name": "",
          "type": "bool"
        }
      ],
      "stateMutability": "view",
      "type": "function"
    },
    {
      "inputs": [
        {
          "internalType": "address",
          "name": "user",
          "type": "address"
        },
        {
          "internalType": "uint256",
          "name": "petTokenId",
          "type": "uint256"
        },
        {
          "internalType": "uint256",
          "name": "stage",
          "type": "uint256"
        }
      ],
      "name": "recordEvolution",
      "outputs": [],
      "stateMutability": "nonpayable",
      "type": "function"
    },
    {
      "inputs": [
        {
          "internalType": "address",
          "name": "user",
          "type": "address"
        },
        {
          "internalType": "uint256",
          "name": "petTokenId",
          "type": "uint256"
        }
      ],
      "name": "recordFeed",
      "outputs": [],
      "stateMutability": "nonpayable",
      "type": "function"
    },
    {
      "inputs": [
        {
          "internalType": "address",
          "name": "user",
          "type": "address"
        },
        {
          "internalType": "uint256",
          "name": "petTokenId",
          "type": "uint256"
        }
      ],
      "name": "recordFirstPet",
      "outputs": [],
      "stateMutability": "nonpayable",
      "type": "function"
    },
    {
      "inputs": [
        {
          "internalType": "address",
          "name": "user",
          "type": "address"
        },
        {
          "internalType": "uint256",
          "name": "petTokenId",
          "type": "uint256"
        }
      ],
      "name": "recordPerfectStats",
      "outputs": [],
      "stateMutability": "nonpayable",
      "type": "function"
    },
    {
      "inputs": [
        {
          "internalType": "address",
          "name": "user",
          "type": "address"
        },
        {
          "internalType": "uint256",
          "name": "petTokenId",
          "type": "uint256"
        }
      ],
      "name": "recordPlay",
      "outputs": [],
      "stateMutability": "nonpayable",
      "type": "function"
    },
    {
      "inputs": [
        {
          "internalType": "address",
          "name": "user",
          "type": "address"
        },
        {
          "internalType": "uint256",
          "name": "petTokenId",
          "type": "uint256"
        }
      ],
      "name": "recordRevival",
      "outputs": [],
      "stateMutability": "nonpayable",
      "type": "function"
    },
    {
      "inputs": [],
      "name": "renounceOwnership",
      "outputs": [],
      "stateMutability": "nonpayable",
      "type": "function"
    },
    {
      "inputs": [
        {
          "internalType": "address",
          "name": "from",
          "type": "address"
        },
        {
          "internalType": "address",
          "name": "to",
          "type": "address"
        },
        {
          "internalType": "uint256[]",
          "name": "ids",
          "type": "uint256[]"
        },
        {
          "internalType": "uint256[]",
          "name": "values",
          "type": "uint256[]"
        },
        {
          "internalType": "bytes",
          "name": "data",
          "type": "bytes"
        }
      ],
      "name": "safeBatchTransferFrom",
      "outputs": [],
      "stateMutability": "nonpayable",
      "type": "function"
    },
    {
      "inputs": [
        {
          "internalType": "address",
          "name": "from",
          "type": "address"
        },
        {
          "internalType": "address",
          "name": "to",
          "type": "address"
        },
        {
          "internalType": "uint256",
          "name": "id",
          "type": "uint256"
        },
        {
          "internalType": "uint256",
          "name": "value",
          "type": "uint256"
        },
        {
          "internalType": "bytes",
          "name": "data",
          "type": "bytes"
        }
      ],
      "name": "safeTransferFrom",
      "outputs": [],
      "stateMutability": "nonpayable",
      "type": "function"
    },
    {
      "inputs": [
        {
          "internalType": "address",
          "name": "operator",
          "type": "address"
        },
        {
          "internalType": "bool",
          "name": "approved",
          "type": "bool"
        }
      ],
      "name": "setApprovalForAll",
      "outputs": [],
      "stateMutability": "nonpayable",
      "type": "function"
    },
    {
      "inputs": [
        {
          "internalType": "address",
          "name": "_contract",
          "type": "address"
        }
      ],
      "name": "setEvolvagotchiContract",
      "outputs": [],
      "stateMutability": "nonpayable",
      "type": "function"
    },
    {
      "inputs": [
        {
          "internalType": "string",
          "name": "newuri",
          "type": "string"
        }
      ],
      "name": "setURI",
      "outputs": [],
      "stateMutability": "nonpayable",
      "type": "function"
    },
    {
      "inputs": [
        {
          "internalType": "bytes4",
          "name": "interfaceId",
          "type": "bytes4"
        }
      ],
      "name": "supportsInterface",
      "outputs": [
        {
          "internalType": "bool",
          "name": "",
          "type": "bool"
        }
      ],
      "stateMutability": "view",
      "type": "function"
    },
    {
      "inputs": [
        {
          "internalType": "address",
          "name": "newOwner",
          "type": "address"
        }
      ],
      "name": "transferOwnership",
      "outputs": [],
      "stateMutability": "nonpayable",
      "type": "function"
    },
    {
      "inputs": [
        {
          "internalType": "uint256",
          "name": "",
          "type": "uint256"
        }
      ],
      "name": "uri",
      "outputs": [
        {
          "internalType": "string",
          "name": "",
          "type": "string"
        }
      ],
      "stateMutability": "view",
      "type": "function"
    }
  ],
  "bytecode": "0x60806040523480156200001157600080fd5b503360405180606001604052806026815260200162003a1860269139620000388162000084565b506001600160a01b0381166200006857604051631e4fbdf760e01b81526000600482015260240160405180910390fd5b620000738162000096565b506200007e620000e8565b62000d72565b600262000092828262000ca6565b5050565b600380546001600160a01b038381166001600160a01b0319831681179093556040519116919082907f8be0079c531659141344cd1fd0a4f28419497f9722a3daafe3b4186f6b6457e090600090a35050565b6040805160c081018252600080825282518084018452600b81526a466972737420537465707360a81b60208281019190915280840191825284518086018652601c81527f4d696e7420796f75722066697273742045766f6c7661676f7463686900000000818301528486015284518086018652600681526521b7b6b6b7b760d11b81830152606085015284518086019095526004855263784fd2cd60e11b85820152608084019490945260a08301829052908052600590925280517f05b8ccbb9d4d8fb16ea74ce3c29a41f1b461fbdaff4714a0d9a8eb05499746bc90815591519091907f05b8ccbb9d4d8fb16ea74ce3c29a41f1b461fbdaff4714a0d9a8eb05499746bd90620001fa908262000ca6565b506040820151600282019062000211908262000ca6565b506060820151600382019062000228908262000ca6565b50608082015160048201906200023f908262000ca6565b5060a082015181600501559050506040518060c00160405280600181526020016040518060400160405280600d81526020016c4d6574616d6f7270686f73697360981b815250815260200160405180606001604052806022815260200162003a3e6022913981526040805180820182526004808252635261726560e01b602083810191909152808501929092528251808401845290815263f09fa68b60e01b81830152918301919091526000606090920182905260019091526005815281517f1471eb6eb2c5e789fc3de43f8ce62938c7d1836ec861730447e2ada8fd81017b908155908201517f1471eb6eb2c5e789fc3de43f8ce62938c7d1836ec861730447e2ada8fd81017c9062000354908262000ca6565b50604082015160028201906200036b908262000ca6565b506060820151600382019062000382908262000ca6565b506080820151600482019062000399908262000ca6565b5060a0918201516005918201556040805160c081018252600280825282518084018452600e81526d2232b0ba341029bab93b34bb37b960911b60208281019190915280840191825284518086018652601781527f5265766976652061207065742066726f6d2064656174680000000000000000008183015284860152845180860186526004808252635261726560e01b828401526060860191909152855180870190965285526301e13f2560e71b8582015260808401949094526000958301869052945291905280517f89832631fb3c3307a103ba2c84ab569c64d6182a18893dcd163f0f1c2090733a90815591519091907f89832631fb3c3307a103ba2c84ab569c64d6182a18893dcd163f0f1c2090733b90620004b9908262000ca6565b5060408201516002820190620004d0908262000ca6565b5060608201516003820190620004e7908262000ca6565b5060808201516004820190620004fe908262000ca6565b5060a0918201516005918201556040805160c081018252600380825282518084018452601081526f2a3934b836329022bb37b63aba34b7b760811b60208281019190915280840191825284518086018652601a81527f5265616368205465656e20737461676520284c6576656c2033290000000000008183015284860152845180860186526004808252634570696360e01b8284015260608601919091528551808701909652855263f09f8c9f60e01b8582015260808401949094526000958301869052945291905280517fa9bc9a3a348c357ba16b37005d7e6b3236198c0e939f4af8c5f19b8deeb8ebc090815591519091907fa9bc9a3a348c357ba16b37005d7e6b3236198c0e939f4af8c5f19b8deeb8ebc19062000620908262000ca6565b506040820151600282019062000637908262000ca6565b50606082015160038201906200064e908262000ca6565b506080820151600482019062000665908262000ca6565b5060a0918201516005918201556040805160c081018252600480825282518084018452600d81526c14195c999958dd1a5bdb9a5cdd609a1b60208281019190915280840191825284518086018652601481527f47657420616c6c20737461747320746f20313030000000000000000000000000818301528486015284518086018652838152634570696360e01b818301526060850152845180860190955282855263f09f92af60e01b8582015260808401949094526000958301869052945291905280517f3eec716f11ba9e820c81ca75eb978ffb45831ef8b7a53e5e422c26008e1ca6d590815591519091907f3eec716f11ba9e820c81ca75eb978ffb45831ef8b7a53e5e422c26008e1ca6d69062000780908262000ca6565b506040820151600282019062000797908262000ca6565b5060608201516003820190620007ae908262000ca6565b5060808201516004820190620007c5908262000ca6565b5060a0918201516005918201556040805160c08101825282815281518083018352600d81526c29ba3932b0b59026b0b9ba32b960991b60208281019190915280830191825283518085018552601681527f4665656420796f7572207065742031302074696d65730000000000000000000081830152838501528351808501855260088152672ab731b7b6b6b7b760c11b81830152606084015283518085019094526004845263f09f94a560e01b84820152608083019390935260009482018590529383905291905280517f458b30c2d72bfd2c6317304a4594ecbafe5f729d3111b65fdc3a33bd48e5432d90815591519091907f458b30c2d72bfd2c6317304a4594ecbafe5f729d3111b65fdc3a33bd48e5432e90620008e6908262000ca6565b5060408201516002820190620008fd908262000ca6565b506060820151600382019062000914908262000ca6565b50608082015160048201906200092b908262000ca6565b5060a0918201516005918201556040805160c081018252600680825282518084018452600d81526c20b1ba34bb3290283630bcb2b960991b60208281019190915280840191825284518086018652601b81527f506c6179207769746820796f7572207065742031302074696d6573000000000081830152848601528451808601865260088152672ab731b7b6b6b7b760c11b81830152606085015284518086019095526004855263784fc75760e11b8582015260808401949094526000958301869052945291905280517f069400f22b28c6c362558d92f66163cec5671cba50b61abd2eecfcd0eaeac51890815591519091907f069400f22b28c6c362558d92f66163cec5671cba50b61abd2eecfcd0eaeac5199062000a4c908262000ca6565b506040820151600282019062000a63908262000ca6565b506060820151600382019062000a7a908262000ca6565b506080820151600482019062000a91908262000ca6565b5060a0918201516005918201556040805160c0810182526007808252825180840184526006815265131959d95b9960d21b60208281019190915280840191825284518086018652601b81527f5265616368204164756c7420737461676520284c6576656c203429000000000081830152848601528451808601865260098152684c6567656e6461727960b81b81830152606085015284518086019095526004855263f09f919160e01b8582015260808401949094526000958301869052945291905280517feddb6698d7c569ff62ff64f1f1492bf14a54594835ba0faac91f84b4f5d8146090815591519091907feddb6698d7c569ff62ff64f1f1492bf14a54594835ba0faac91f84b4f5d814619062000bac908262000ca6565b506040820151600282019062000bc3908262000ca6565b506060820151600382019062000bda908262000ca6565b506080820151600482019062000bf1908262000ca6565b5060a08201518160050155905050565b634e487b7160e01b600052604160045260246000fd5b600181811c9082168062000c2c57607f821691505b60208210810362000c4d57634e487b7160e01b600052602260045260246000fd5b50919050565b601f82111562000ca157600081815260208120601f850160051c8101602086101562000c7c5750805b601f850160051c820191505b8181101562000c9d5782815560010162000c88565b5050505b505050565b81516001600160401b0381111562000cc25762000cc262000c01565b62000cda8162000cd3845462000c17565b8462000c53565b602080601f83116001811462000d12576000841562000cf95750858301515b600019600386901b1c1916600185901b17855562000c9d565b600085815260208120601f198616915b8281101562000d435788860151825594840194600190910190840162000d22565b508582101562000d625787850151600019600388901b60f8161c191681555b5050505050600190811b01905550565b612c968062000d826000396000f3fe608060405234801561001057600080fd5b50600436106102265760003560e01c8063715018a611610130578063b6155a9e116100b8578063e985e9c51161007c578063e985e9c514610591578063f09153c4146105a4578063f242432a146105b7578063f2fde38b146105ca578063f7c0edd8146105dd57600080fd5b8063b6155a9e14610517578063b7d7a12b14610545578063bab44d4214610558578063cdfc70d31461056b578063cf985bfc1461057e57600080fd5b80637a685d81116100ff5780637a685d811461048f5780638da5cb5b146104bd57806394a67424146104ce5780639aaab396146104e1578063a22cb4651461050457600080fd5b8063715018a61461043f57806373da48091461044757806375a82211146104675780637725a9fb1461047a57600080fd5b80633aa54f36116101b35780634f4e655d116101825780634f4e655d146103b55780635b5790a8146103c857806362e3a643146103eb578063695b7d06146103fe5780636c6770141461041157600080fd5b80633aa54f36146103445780634538eaf514610364578063498aaa9a1461038f5780634e1273f4146103a257600080fd5b80630e89341c116101fa5780630e89341c146102ac57806319ea7e80146102cc57806327aed72e146102ec5780632eb2c2d61461031157806334c166b61461032457600080fd5b8062fdd58e1461022b57806301ffc9a71461025157806302fe5305146102745780630bb8836914610289575b600080fd5b61023e61023936600461220a565b6105e5565b6040519081526020015b60405180910390f35b61026461025f36600461224a565b61060d565b6040519015158152602001610248565b61028761028236600461230d565b61065d565b005b61026461029736600461235e565b600c6020526000908152604090205460ff1681565b6102bf6102ba366004612379565b610671565b60405161024891906123d8565b61023e6102da36600461235e565b60096020526000908152604090205481565b6102ff6102fa366004612379565b610705565b604051610248969594939291906123eb565b61028761031f366004612501565b61095a565b610337610332366004612379565b6109c6565b60405161024891906125e6565b61023e61035236600461235e565b60086020526000908152604090205481565b600454610377906001600160a01b031681565b6040516001600160a01b039091168152602001610248565b61028761039d36600461235e565b610ad6565b6103376103b03660046125f9565b610b28565b6102876103c336600461220a565b610bfd565b6102646103d636600461235e565b600b6020526000908152604090205460ff1681565b6102876103f93660046126b9565b610c8f565b61028761040c36600461220a565b610e35565b61026461041f36600461220a565b600660209081526000928352604080842090915290825290205460ff1681565b610287610efc565b61045a610455366004612379565b610f10565b604051610248919061276f565b6102876104753660046126b9565b6111ea565b610482611378565b6040516102489190612782565b61026461049d3660046127e4565b600760209081526000928352604080842090915290825290205460ff1681565b6003546001600160a01b0316610377565b6102876104dc36600461220a565b61169f565b6102646104ef36600461235e565b600a6020526000908152604090205460ff1681565b610287610512366004612806565b611765565b61026461052536600461220a565b600d60209081526000928352604080842090915290825290205460ff1681565b61028761055336600461220a565b611770565b61026461056636600461220a565b6117fe565b61028761057936600461220a565b61184c565b61023e61058c36600461235e565b6118c3565b61026461059f366004612842565b611924565b6103376105b236600461235e565b611952565b6102876105c5366004612875565b611a6c565b6102876105d836600461235e565b611acb565b61023e600881565b6000818152602081815260408083206001600160a01b03861684529091529020545b92915050565b60006001600160e01b03198216636cdb3d1360e11b148061063e57506001600160e01b031982166303a24d0760e21b145b8061060757506301ffc9a760e01b6001600160e01b0319831614610607565b610665611b06565b61066e81611b33565b50565b606060028054610680906128da565b80601f01602080910402602001604051908101604052809291908181526020018280546106ac906128da565b80156106f95780601f106106ce576101008083540402835291602001916106f9565b820191906000526020600020905b8154815290600101906020018083116106dc57829003601f168201915b50505050509050919050565b60056020526000908152604090208054600182018054919291610727906128da565b80601f0160208091040260200160405190810160405280929190818152602001828054610753906128da565b80156107a05780601f10610775576101008083540402835291602001916107a0565b820191906000526020600020905b81548152906001019060200180831161078357829003601f168201915b5050505050908060020180546107b5906128da565b80601f01602080910402602001604051908101604052809291908181526020018280546107e1906128da565b801561082e5780601f106108035761010080835404028352916020019161082e565b820191906000526020600020905b81548152906001019060200180831161081157829003601f168201915b505050505090806003018054610843906128da565b80601f016020809104026020016040519081016040528092919081815260200182805461086f906128da565b80156108bc5780601f10610891576101008083540402835291602001916108bc565b820191906000526020600020905b81548152906001019060200180831161089f57829003601f168201915b5050505050908060040180546108d1906128da565b80601f01602080910402602001604051908101604052809291908181526020018280546108fd906128da565b801561094a5780601f1061091f5761010080835404028352916020019161094a565b820191906000526020600020905b81548152906001019060200180831161092d57829003601f168201915b5050505050908060050154905086565b336001600160a01b038616811480159061097b57506109798682611924565b155b156109b15760405163711bec9160e11b81526001600160a01b038083166004830152871660248201526044015b60405180910390fd5b6109be8686868686611b3f565b505050505050565b60606000805b6008811015610a1757600084815260076020908152604080832084845290915290205460ff1615610a055781610a0181612924565b9250505b80610a0f81612924565b9150506109cc565b5060008167ffffffffffffffff811115610a3357610a3361226e565b604051908082528060200260200182016040528015610a5c578160200160208202803683370190505b5090506000805b6008811015610acc57600086815260076020908152604080832084845290915290205460ff1615610aba5780838381518110610aa157610aa161293d565b602090810291909101015281610ab681612924565b9250505b80610ac481612924565b915050610a63565b5090949350505050565b610ade611b06565b600480546001600160a01b0319166001600160a01b0383169081179091556040517fac12f79f0de7e9d5a110ad4e24b21a1c7179f4ac9e8745f1b32e9696fd79b4a090600090a250565b60608151835114610b595781518351604051635b05999160e01b8152600481019290925260248201526044016109a8565b6000835167ffffffffffffffff811115610b7557610b7561226e565b604051908082528060200260200182016040528015610b9e578160200160208202803683370190505b50905060005b8451811015610bf557602080820286010151610bc8906020808402870101516105e5565b828281518110610bda57610bda61293d565b6020908102919091010152610bee81612924565b9050610ba4565b509392505050565b6004546001600160a01b0316331480610c2057506003546001600160a01b031633145b610c3c5760405162461bcd60e51b81526004016109a890612953565b6001600160a01b0382166000908152600a602052604090205460ff16610c8b576001600160a01b0382166000908152600a60205260408120805460ff19166001179055610c8b90839083610c8f565b5050565b6004546001600160a01b0316331480610cb257506003546001600160a01b031633145b610cce5760405162461bcd60e51b81526004016109a890612953565b60088210610cee5760405162461bcd60e51b81526004016109a890612996565b6001600160a01b038316600090815260066020908152604080832085845290915290205460ff1615610d535760405162461bcd60e51b815260206004820152600e60248201526d105b1c9958591e4819585c9b995960921b60448201526064016109a8565b6001600160a01b038316600090815260066020908152604080832085845282528083208054600160ff19918216811790925585855260078452828520878652845282852080549091169091179055600591829052822001805491610db683612924565b9190505550610dd78383600160405180602001604052806000815250611ba6565b81836001600160a01b03167fbdc9e8e94636596d1c963492e71ce2612675f5814f656cc78a519d92ec063de48360056000878152602001908152602001600020600101604051610e289291906129c6565b60405180910390a3505050565b6004546001600160a01b0316331480610e5857506003546001600160a01b031633145b610e745760405162461bcd60e51b81526004016109a890612953565b6001600160a01b0382166000908152600860205260408120805491610e9883612924565b90915550506001600160a01b038216600090815260086020526040902054600a11801590610eeb57506001600160a01b03821660009081526006602090815260408083206005845290915290205460ff16155b15610c8b57610c8b82600583610c8f565b610f04611b06565b610f0e6000611c03565b565b610f496040518060c001604052806000815260200160608152602001606081526020016060815260200160608152602001600081525090565b60088210610f695760405162461bcd60e51b81526004016109a890612996565b600560008381526020019081526020016000206040518060c001604052908160008201548152602001600182018054610fa1906128da565b80601f0160208091040260200160405190810160405280929190818152602001828054610fcd906128da565b801561101a5780601f10610fef5761010080835404028352916020019161101a565b820191906000526020600020905b815481529060010190602001808311610ffd57829003601f168201915b50505050508152602001600282018054611033906128da565b80601f016020809104026020016040519081016040528092919081815260200182805461105f906128da565b80156110ac5780601f10611081576101008083540402835291602001916110ac565b820191906000526020600020905b81548152906001019060200180831161108f57829003601f168201915b505050505081526020016003820180546110c5906128da565b80601f01602080910402602001604051908101604052809291908181526020018280546110f1906128da565b801561113e5780601f106111135761010080835404028352916020019161113e565b820191906000526020600020905b81548152906001019060200180831161112157829003601f168201915b50505050508152602001600482018054611157906128da565b80601f0160208091040260200160405190810160405280929190818152602001828054611183906128da565b80156111d05780601f106111a5576101008083540402835291602001916111d0565b820191906000526020600020905b8154815290600101906020018083116111b357829003601f168201915b505050505081526020016005820154815250509050919050565b6004546001600160a01b031633148061120d57506003546001600160a01b031633145b6112295760405162461bcd60e51b81526004016109a890612953565b80600114801561125257506001600160a01b0383166000908152600b602052604090205460ff16155b15611289576001600160a01b0383166000908152600b60205260409020805460ff1916600190811790915561128990849084610c8f565b8060021480156112be57506001600160a01b0383166000908152600d602090815260408083206002845290915290205460ff16155b156112fe576001600160a01b0383166000908152600d60209081526040808320600284529091529020805460ff191660011790556112fe83600384610c8f565b80600314801561133357506001600160a01b0383166000908152600d602090815260408083206003845290915290205460ff16155b15611373576001600160a01b0383166000908152600d60209081526040808320600384529091529020805460ff1916600117905561137383600784610c8f565b505050565b604080516008808252610120820190925260609160009190816020015b6113ce6040518060c001604052806000815260200160608152602001606081526020016060815260200160608152602001600081525090565b81526020019060019003908161139557905050905060005b600881101561169957600560008281526020019081526020016000206040518060c001604052908160008201548152602001600182018054611427906128da565b80601f0160208091040260200160405190810160405280929190818152602001828054611453906128da565b80156114a05780601f10611475576101008083540402835291602001916114a0565b820191906000526020600020905b81548152906001019060200180831161148357829003601f168201915b505050505081526020016002820180546114b9906128da565b80601f01602080910402602001604051908101604052809291908181526020018280546114e5906128da565b80156115325780601f1061150757610100808354040283529160200191611532565b820191906000526020600020905b81548152906001019060200180831161151557829003601f168201915b5050505050815260200160038201805461154b906128da565b80601f0160208091040260200160405190810160405280929190818152602001828054611577906128da565b80156115c45780601f10611599576101008083540402835291602001916115c4565b820191906000526020600020905b8154815290600101906020018083116115a757829003601f168201915b505050505081526020016004820180546115dd906128da565b80601f0160208091040260200160405190810160405280929190818152602001828054611609906128da565b80156116565780601f1061162b57610100808354040283529160200191611656565b820191906000526020600020905b81548152906001019060200180831161163957829003601f168201915b5050505050815260200160058201548152505082828151811061167b5761167b61293d565b6020026020010181905250808061169190612924565b9150506113e6565b50919050565b6004546001600160a01b03163314806116c257506003546001600160a01b031633145b6116de5760405162461bcd60e51b81526004016109a890612953565b6001600160a01b038216600090815260096020526040812080549161170283612924565b90915550506001600160a01b038216600090815260096020526040902054600a1180159061175457506001600160a01b038216600090815260066020818152604080842092845291905290205460ff16155b15610c8b57610c8b82600683610c8f565b610c8b338383611c55565b6004546001600160a01b031633148061179357506003546001600160a01b031633145b6117af5760405162461bcd60e51b81526004016109a890612953565b6001600160a01b0382166000908152600c602052604090205460ff16610c8b576001600160a01b0382166000908152600c60205260409020805460ff19166001179055610c8b82600283610c8f565b6000600882106118205760405162461bcd60e51b81526004016109a890612996565b506001600160a01b03919091166000908152600660209081526040808320938352929052205460ff1690565b6004546001600160a01b031633148061186f57506003546001600160a01b031633145b61188b5760405162461bcd60e51b81526004016109a890612953565b6001600160a01b03821660009081526006602090815260408083206004845290915290205460ff16610c8b57610c8b82600483610c8f565b600080805b600881101561191d576001600160a01b038416600090815260066020908152604080832084845290915290205460ff161561190b578161190781612924565b9250505b8061191581612924565b9150506118c8565b5092915050565b6001600160a01b03918216600090815260016020908152604080832093909416825291909152205460ff1690565b60606000805b60088110156119ad576001600160a01b038416600090815260066020908152604080832084845290915290205460ff161561199b578161199781612924565b9250505b806119a581612924565b915050611958565b5060008167ffffffffffffffff8111156119c9576119c961226e565b6040519080825280602002602001820160405280156119f2578160200160208202803683370190505b5090506000805b6008811015610acc576001600160a01b038616600090815260066020908152604080832084845290915290205460ff1615611a5a5780838381518110611a4157611a4161293d565b602090810291909101015281611a5681612924565b9250505b80611a6481612924565b9150506119f9565b336001600160a01b0386168114801590611a8d5750611a8b8682611924565b155b15611abe5760405163711bec9160e11b81526001600160a01b038083166004830152871660248201526044016109a8565b6109be8686868686611ce3565b611ad3611b06565b6001600160a01b038116611afd57604051631e4fbdf760e01b8152600060048201526024016109a8565b61066e81611c03565b6003546001600160a01b03163314610f0e5760405163118cdaa760e01b81523360048201526024016109a8565b6002610c8b8282612a9f565b6001600160a01b038416611b6957604051632bfa23e760e11b8152600060048201526024016109a8565b6001600160a01b038516611b9257604051626a0d4560e21b8152600060048201526024016109a8565b611b9f8585858585611d71565b5050505050565b6001600160a01b038416611bd057604051632bfa23e760e11b8152600060048201526024016109a8565b604080516001808252602082018690528183019081526060820185905260808201909252906109be600087848487611d71565b600380546001600160a01b038381166001600160a01b0319831681179093556040519116919082907f8be0079c531659141344cd1fd0a4f28419497f9722a3daafe3b4186f6b6457e090600090a35050565b6001600160a01b038216611c7e5760405162ced3e160e81b8152600060048201526024016109a8565b6001600160a01b03838116600081815260016020908152604080832094871680845294825291829020805460ff191686151590811790915591519182527f17307eab39ab6107e8899845ad3d59bd9653f200f220920489ca2b5937696c319101610e28565b6001600160a01b038416611d0d57604051632bfa23e760e11b8152600060048201526024016109a8565b6001600160a01b038516611d3657604051626a0d4560e21b8152600060048201526024016109a8565b60408051600180825260208201869052818301908152606082018590526080820190925290611d688787848487611d71565b50505050505050565b611d7d85858585611dc4565b6001600160a01b03841615611b9f5782513390600103611db65760208481015190840151611daf838989858589611fe1565b50506109be565b6109be818787878787612105565b8051825114611df35781518151604051635b05999160e01b8152600481019290925260248201526044016109a8565b3360005b8351811015611f02576020818102858101820151908501909101516001600160a01b03881615611eaa576000828152602081815260408083206001600160a01b038c16845290915290205481811015611e83576040516303dee4c560e01b81526001600160a01b038a1660048201526024810182905260448101839052606481018490526084016109a8565b6000838152602081815260408083206001600160a01b038d16845290915290209082900390555b6001600160a01b03871615611eef576000828152602081815260408083206001600160a01b038b16845290915281208054839290611ee9908490612b5f565b90915550505b505080611efb90612924565b9050611df7565b508251600103611f835760208301516000906020840151909150856001600160a01b0316876001600160a01b0316846001600160a01b03167fc3d58168c5ae7397731d063d5bbf3d657854427343f4c083240f7aacaa2d0f628585604051611f74929190918252602082015260400190565b60405180910390a45050611b9f565b836001600160a01b0316856001600160a01b0316826001600160a01b03167f4a39dc06d4c0dbc64b70af90fd698a233a518aa5d07e595d983b8c0526c8f7fb8686604051611fd2929190612b72565b60405180910390a45050505050565b6001600160a01b0384163b156109be5760405163f23a6e6160e01b81526001600160a01b0385169063f23a6e61906120259089908990889088908890600401612ba0565b6020604051808303816000875af1925050508015612060575060408051601f3d908101601f1916820190925261205d91810190612be5565b60015b6120c9573d80801561208e576040519150601f19603f3d011682016040523d82523d6000602084013e612093565b606091505b5080516000036120c157604051632bfa23e760e11b81526001600160a01b03861660048201526024016109a8565b805160208201fd5b6001600160e01b0319811663f23a6e6160e01b14611d6857604051632bfa23e760e11b81526001600160a01b03861660048201526024016109a8565b6001600160a01b0384163b156109be5760405163bc197c8160e01b81526001600160a01b0385169063bc197c81906121499089908990889088908890600401612c02565b6020604051808303816000875af1925050508015612184575060408051601f3d908101601f1916820190925261218191810190612be5565b60015b6121b2573d80801561208e576040519150601f19603f3d011682016040523d82523d6000602084013e612093565b6001600160e01b0319811663bc197c8160e01b14611d6857604051632bfa23e760e11b81526001600160a01b03861660048201526024016109a8565b80356001600160a01b038116811461220557600080fd5b919050565b6000806040838503121561221d57600080fd5b612226836121ee565b946020939093013593505050565b6001600160e01b03198116811461066e57600080fd5b60006020828403121561225c57600080fd5b813561226781612234565b9392505050565b634e487b7160e01b600052604160045260246000fd5b604051601f8201601f1916810167ffffffffffffffff811182821017156122ad576122ad61226e565b604052919050565b600067ffffffffffffffff8311156122cf576122cf61226e565b6122e2601f8401601f1916602001612284565b90508281528383830111156122f657600080fd5b828260208301376000602084830101529392505050565b60006020828403121561231f57600080fd5b813567ffffffffffffffff81111561233657600080fd5b8201601f8101841361234757600080fd5b612356848235602084016122b5565b949350505050565b60006020828403121561237057600080fd5b612267826121ee565b60006020828403121561238b57600080fd5b5035919050565b6000815180845260005b818110156123b85760208185018101518683018201520161239c565b506000602082860101526020601f19601f83011685010191505092915050565b6020815260006122676020830184612392565b86815260c06020820152600061240460c0830188612392565b82810360408401526124168188612392565b9050828103606084015261242a8187612392565b9050828103608084015261243e8186612392565b9150508260a0830152979650505050505050565b600067ffffffffffffffff82111561246c5761246c61226e565b5060051b60200190565b600082601f83011261248757600080fd5b8135602061249c61249783612452565b612284565b82815260059290921b840181019181810190868411156124bb57600080fd5b8286015b848110156124d657803583529183019183016124bf565b509695505050505050565b600082601f8301126124f257600080fd5b612267838335602085016122b5565b600080600080600060a0868803121561251957600080fd5b612522866121ee565b9450612530602087016121ee565b9350604086013567ffffffffffffffff8082111561254d57600080fd5b61255989838a01612476565b9450606088013591508082111561256f57600080fd5b61257b89838a01612476565b9350608088013591508082111561259157600080fd5b5061259e888289016124e1565b9150509295509295909350565b600081518084526020808501945080840160005b838110156125db578151875295820195908201906001016125bf565b509495945050505050565b60208152600061226760208301846125ab565b6000806040838503121561260c57600080fd5b823567ffffffffffffffff8082111561262457600080fd5b818501915085601f83011261263857600080fd5b8135602061264861249783612452565b82815260059290921b8401810191818101908984111561266757600080fd5b948201945b8386101561268c5761267d866121ee565b8252948201949082019061266c565b965050860135925050808211156126a257600080fd5b506126af85828601612476565b9150509250929050565b6000806000606084860312156126ce57600080fd5b6126d7846121ee565b95602085013595506040909401359392505050565b805182526000602082015160c0602085015261270b60c0850182612392565b9050604083015184820360408601526127248282612392565b9150506060830151848203606086015261273e8282612392565b915050608083015184820360808601526127588282612392565b91505060a083015160a08501528091505092915050565b60208152600061226760208301846126ec565b6000602080830181845280855180835260408601915060408160051b870101925083870160005b828110156127d757603f198886030184526127c58583516126ec565b945092850192908501906001016127a9565b5092979650505050505050565b600080604083850312156127f757600080fd5b50508035926020909101359150565b6000806040838503121561281957600080fd5b612822836121ee565b91506020830135801515811461283757600080fd5b809150509250929050565b6000806040838503121561285557600080fd5b61285e836121ee565b915061286c602084016121ee565b90509250929050565b600080600080600060a0868803121561288d57600080fd5b612896866121ee565b94506128a4602087016121ee565b93506040860135925060608601359150608086013567ffffffffffffffff8111156128ce57600080fd5b61259e888289016124e1565b600181811c908216806128ee57607f821691505b60208210810361169957634e487b7160e01b600052602260045260246000fd5b634e487b7160e01b600052601160045260246000fd5b6000600182016129365761293661290e565b5060010190565b634e487b7160e01b600052603260045260246000fd5b60208082526023908201527f4f6e6c792045766f6c7661676f7463686920636f6e7472616374206f72206f776040820152623732b960e91b606082015260800190565b602080825260169082015275125b9d985b1a59081858da1a595d995b595b9d08125160521b604082015260600190565b82815260006020604081840152600084546129e0816128da565b8060408701526060600180841660008114612a025760018114612a1c57612a4a565b60ff1985168984015283151560051b890183019550612a4a565b896000528660002060005b85811015612a425781548b8201860152908301908801612a27565b8a0184019650505b50939998505050505050505050565b601f82111561137357600081815260208120601f850160051c81016020861015612a805750805b601f850160051c820191505b818110156109be57828155600101612a8c565b815167ffffffffffffffff811115612ab957612ab961226e565b612acd81612ac784546128da565b84612a59565b602080601f831160018114612b025760008415612aea5750858301515b600019600386901b1c1916600185901b1785556109be565b600085815260208120601f198616915b82811015612b3157888601518255948401946001909101908401612b12565b5085821015612b4f5787850151600019600388901b60f8161c191681555b5050505050600190811b01905550565b808201808211156106075761060761290e565b604081526000612b8560408301856125ab565b8281036020840152612b9781856125ab565b95945050505050565b6001600160a01b03868116825285166020820152604081018490526060810183905260a060808201819052600090612bda90830184612392565b979650505050505050565b600060208284031215612bf757600080fd5b815161226781612234565b6001600160a01b0386811682528516602082015260a060408201819052600090612c2e908301866125ab565b8281036060840152612c4081866125ab565b90508281036080840152612c548185612392565b9897505050505050505056fea26469706673582212209187109f6499fa999067e3343085a2c8f2657ae829f6487336b534fb10f7c6c664736f6c63430008140033697066733a2f2f516d416368696576656d656e744d657461646174612f7b69647d2e6a736f6e45766f6c766520796f75722070657420666f72207468652066697273742074696d65",
  "linkReferences": {},
  "deployedLinkReferences": {}
}