{
  "_format": "hh-sol-artifact-1",
  "contractName": "Evolvagotchi",
  "sourceName": "contracts/Evolvagotchi.sol",
  "address": "0x60f31F0bec670BA96E361439cc1a6351a2743D58",
  "abi": [
    {
      "inputs": [],
      "stateMutability": "nonpayable",
      "type": "constructor"
    },
    {
      "inputs": [
        {
          "internalType": "address",
          "name": "sender",
          "type": "address"
        },
        {
          "internalType": "uint256",
          "name": "tokenId",
          "type": "uint256"
        },
        {
          "internalType": "address",
          "name": "owner",
          "type": "address"
        }
      ],
      "name": "ERC721IncorrectOwner",
      "type": "error"
    },
    {
      "inputs": [
        {
          "internalType": "address",
          "name": "operator",
          "type": "address"
        },
        {
          "internalType": "uint256",
          "name": "tokenId",
          "type": "uint256"
        }
      ],
      "name": "ERC721InsufficientApproval",
      "type": "error"
    },
    {
      "inputs": [
        {
          "internalType": "address",
          "name": "approver",
          "type": "address"
        }
      ],
      "name": "ERC721InvalidApprover",
      "type": "error"
    },
    {
      "inputs": [
        {
          "internalType": "address",
          "name": "operator",
          "type": "address"
        }
      ],
      "name": "ERC721InvalidOperator",
      "type": "error"
    },
    {
      "inputs": [
        {
          "internalType": "address",
          "name": "owner",
          "type": "address"
        }
      ],
      "name": "ERC721InvalidOwner",
      "type": "error"
    },
    {
      "inputs": [
        {
          "internalType": "address",
          "name": "receiver",
          "type": "address"
        }
      ],
      "name": "ERC721InvalidReceiver",
      "type": "error"
    },
    {
      "inputs": [
        {
          "internalType": "address",
          "name": "sender",
          "type": "address"
        }
      ],
      "name": "ERC721InvalidSender",
      "type": "error"
    },
    {
      "inputs": [
        {
          "internalType": "uint256",
          "name": "tokenId",
          "type": "uint256"
        }
      ],
      "name": "ERC721NonexistentToken",
      "type": "error"
    },
    {
      "inputs": [
        {
          "internalType": "address",
          "name": "owner",
          "type": "address"
        }
      ],
      "name": "OwnableInvalidOwner",
      "type": "error"
    },
    {
      "inputs": [
        {
          "internalType": "address",
          "name": "account",
          "type": "address"
        }
      ],
      "name": "OwnableUnauthorizedAccount",
      "type": "error"
    },
    {
      "anonymous": false,
      "inputs": [
        {
          "indexed": true,
          "internalType": "address",
          "name": "owner",
          "type": "address"
        },
        {
          "indexed": true,
          "internalType": "address",
          "name": "approved",
          "type": "address"
        },
        {
          "indexed": true,
          "internalType": "uint256",
          "name": "tokenId",
          "type": "uint256"
        }
      ],
      "name": "Approval",
      "type": "event"
    },
    {
      "anonymous": false,
      "inputs": [
        {
          "indexed": true,
          "internalType": "address",
          "name": "owner",
          "type": "address"
        },
        {
          "indexed": true,
          "internalType": "address",
          "name": "operator",
          "type": "address"
        },
        {
          "indexed": false,
          "internalType": "bool",
          "name": "approved",
          "type": "bool"
        }
      ],
      "name": "ApprovalForAll",
      "type": "event"
    },
    {
      "anonymous": false,
      "inputs": [
        {
          "indexed": false,
          "internalType": "uint256",
          "name": "_fromTokenId",
          "type": "uint256"
        },
        {
          "indexed": false,
          "internalType": "uint256",
          "name": "_toTokenId",
          "type": "uint256"
        }
      ],
      "name": "BatchMetadataUpdate",
      "type": "event"
    },
    {
      "anonymous": false,
      "inputs": [
        {
          "indexed": false,
          "internalType": "uint256",
          "name": "_tokenId",
          "type": "uint256"
        }
      ],
      "name": "MetadataUpdate",
      "type": "event"
    },
    {
      "anonymous": false,
      "inputs": [
        {
          "indexed": true,
          "internalType": "address",
          "name": "previousOwner",
          "type": "address"
        },
        {
          "indexed": true,
          "internalType": "address",
          "name": "newOwner",
          "type": "address"
        }
      ],
      "name": "OwnershipTransferred",
      "type": "event"
    },
    {
      "anonymous": false,
      "inputs": [
        {
          "indexed": true,
          "internalType": "uint256",
          "name": "tokenId",
          "type": "uint256"
        },
        {
          "indexed": false,
          "internalType": "enum Evolvagotchi.EvolutionStage",
          "name": "newStage",
          "type": "uint8"
        }
      ],
      "name": "PetEvolved",
      "type": "event"
    },
    {
      "anonymous": false,
      "inputs": [
        {
          "indexed": true,
          "internalType": "uint256",
          "name": "tokenId",
          "type": "uint256"
        },
        {
          "indexed": false,
          "internalType": "uint8",
          "name": "newHunger",
          "type": "uint8"
        },
        {
          "indexed": false,
          "internalType": "uint8",
          "name": "newHappiness",
          "type": "uint8"
        }
      ],
      "name": "PetFed",
      "type": "event"
    },
    {
      "anonymous": false,
      "inputs": [
        {
          "indexed": true,
          "internalType": "uint256",
          "name": "tokenId",
          "type": "uint256"
        },
        {
          "indexed": true,
          "internalType": "address",
          "name": "owner",
          "type": "address"
        },
        {
          "indexed": false,
          "internalType": "string",
          "name": "name",
          "type": "string"
        }
      ],
      "name": "PetMinted",
      "type": "event"
    },
    {
      "anonymous": false,
      "inputs": [
        {
          "indexed": true,
          "internalType": "uint256",
          "name": "tokenId",
          "type": "uint256"
        },
        {
          "indexed": false,
          "internalType": "uint8",
          "name": "newHappiness",
          "type": "uint8"
        }
      ],
      "name": "PetPlayed",
      "type": "event"
    },
    {
      "anonymous": false,
      "inputs": [
        {
          "indexed": true,
          "internalType": "uint256",
          "name": "tokenId",
          "type": "uint256"
        },
        {
          "indexed": false,
          "internalType": "uint8",
          "name": "hunger",
          "type": "uint8"
        },
        {
          "indexed": false,
          "internalType": "uint8",
          "name": "happiness",
          "type": "uint8"
        },
        {
          "indexed": false,
          "internalType": "uint8",
          "name": "health",
          "type": "uint8"
        }
      ],
      "name": "StateUpdated",
      "type": "event"
    },
    {
      "anonymous": false,
      "inputs": [
        {
          "indexed": true,
          "internalType": "address",
          "name": "from",
          "type": "address"
        },
        {
          "indexed": true,
          "internalType": "address",
          "name": "to",
          "type": "address"
        },
        {
          "indexed": true,
          "internalType": "uint256",
          "name": "tokenId",
          "type": "uint256"
        }
      ],
      "name": "Transfer",
      "type": "event"
    },
    {
      "inputs": [],
      "name": "BABY_TO_TEEN_BLOCKS",
      "outputs": [
        {
          "internalType": "uint256",
          "name": "",
          "type": "uint256"
        }
      ],
      "stateMutability": "view",
      "type": "function"
    },
    {
      "inputs": [],
      "name": "BLOCKS_PER_HAPPINESS_DECAY",
      "outputs": [
        {
          "internalType": "uint256",
          "name": "",
          "type": "uint256"
        }
      ],
      "stateMutability": "view",
      "type": "function"
    },
    {
      "inputs": [],
      "name": "BLOCKS_PER_HUNGER_POINT",
      "outputs": [
        {
          "internalType": "uint256",
          "name": "",
          "type": "uint256"
        }
      ],
      "stateMutability": "view",
      "type": "function"
    },
    {
      "inputs": [],
      "name": "EGG_TO_BABY_BLOCKS",
      "outputs": [
        {
          "internalType": "uint256",
          "name": "",
          "type": "uint256"
        }
      ],
      "stateMutability": "view",
      "type": "function"
    },
    {
      "inputs": [],
      "name": "EVOLUTION_HAPPINESS_THRESHOLD",
      "outputs": [
        {
          "internalType": "uint8",
          "name": "",
          "type": "uint8"
        }
      ],
      "stateMutability": "view",
      "type": "function"
    },
    {
      "inputs": [],
      "name": "FEED_COST",
      "outputs": [
        {
          "internalType": "uint256",
          "name": "",
          "type": "uint256"
        }
      ],
      "stateMutability": "view",
      "type": "function"
    },
    {
      "inputs": [],
      "name": "MINT_COST",
      "outputs": [
        {
          "internalType": "uint256",
          "name": "",
          "type": "uint256"
        }
      ],
      "stateMutability": "view",
      "type": "function"
    },
    {
      "inputs": [],
      "name": "TEEN_TO_ADULT_BLOCKS",
      "outputs": [
        {
          "internalType": "uint256",
          "name": "",
          "type": "uint256"
        }
      ],
      "stateMutability": "view",
      "type": "function"
    },
    {
      "inputs": [
        {
          "internalType": "uint256",
          "name": "tokenId",
          "type": "uint256"
        },
        {
          "internalType": "int8",
          "name": "happinessDelta",
          "type": "int8"
        },
        {
          "internalType": "int8",
          "name": "hungerDelta",
          "type": "int8"
        },
        {
          "internalType": "int8",
          "name": "healthDelta",
          "type": "int8"
        }
      ],
      "name": "applyEventEffects",
      "outputs": [],
      "stateMutability": "nonpayable",
      "type": "function"
    },
    {
      "inputs": [
        {
          "internalType": "address",
          "name": "to",
          "type": "address"
        },
        {
          "internalType": "uint256",
          "name": "tokenId",
          "type": "uint256"
        }
      ],
      "name": "approve",
      "outputs": [],
      "stateMutability": "nonpayable",
      "type": "function"
    },
    {
      "inputs": [
        {
          "internalType": "address",
          "name": "owner",
          "type": "address"
        }
      ],
      "name": "balanceOf",
      "outputs": [
        {
          "internalType": "uint256",
          "name": "",
          "type": "uint256"
        }
      ],
      "stateMutability": "view",
      "type": "function"
    },
    {
      "inputs": [
        {
          "internalType": "uint256[]",
          "name": "tokenIds",
          "type": "uint256[]"
        }
      ],
      "name": "batchUpdateState",
      "outputs": [],
      "stateMutability": "nonpayable",
      "type": "function"
    },
    {
      "inputs": [
        {
          "internalType": "uint256",
          "name": "tokenId",
          "type": "uint256"
        }
      ],
      "name": "feed",
      "outputs": [],
      "stateMutability": "payable",
      "type": "function"
    },
    {
      "inputs": [
        {
          "internalType": "uint256",
          "name": "tokenId",
          "type": "uint256"
        }
      ],
      "name": "getApproved",
      "outputs": [
        {
          "internalType": "address",
          "name": "",
          "type": "address"
        }
      ],
      "stateMutability": "view",
      "type": "function"
    },
    {
      "inputs": [
        {
          "internalType": "uint256",
          "name": "tokenId",
          "type": "uint256"
        }
      ],
      "name": "getPetInfo",
      "outputs": [
        {
          "internalType": "string",
          "name": "name",
          "type": "string"
        },
        {
          "internalType": "uint256",
          "name": "birthDate",
          "type": "uint256"
        },
        {
          "internalType": "uint256",
          "name": "age",
          "type": "uint256"
        },
        {
          "internalType": "enum Evolvagotchi.EvolutionStage",
          "name": "evolutionStage",
          "type": "uint8"
        },
        {
          "internalType": "uint8",
          "name": "happiness",
          "type": "uint8"
        },
        {
          "internalType": "uint8",
          "name": "hunger",
          "type": "uint8"
        },
        {
          "internalType": "uint8",
          "name": "health",
          "type": "uint8"
        },
        {
          "internalType": "uint256",
          "name": "blocksSinceUpdate",
          "type": "uint256"
        }
      ],
      "stateMutability": "view",
      "type": "function"
    },
    {
      "inputs": [
        {
          "internalType": "address",
          "name": "user",
          "type": "address"
        }
      ],
      "name": "getUserPets",
      "outputs": [
        {
          "internalType": "uint256[]",
          "name": "",
          "type": "uint256[]"
        }
      ],
      "stateMutability": "view",
      "type": "function"
    },
    {
      "inputs": [
        {
          "internalType": "address",
          "name": "owner",
          "type": "address"
        },
        {
          "internalType": "address",
          "name": "operator",
          "type": "address"
        }
      ],
      "name": "isApprovedForAll",
      "outputs": [
        {
          "internalType": "bool",
          "name": "",
          "type": "bool"
        }
      ],
      "stateMutability": "view",
      "type": "function"
    },
    {
      "inputs": [
        {
          "internalType": "string",
          "name": "_name",
          "type": "string"
        }
      ],
      "name": "mint",
      "outputs": [
        {
          "internalType": "uint256",
          "name": "",
          "type": "uint256"
        }
      ],
      "stateMutability": "payable",
      "type": "function"
    },
    {
      "inputs": [],
      "name": "name",
      "outputs": [
        {
          "internalType": "string",
          "name": "",
          "type": "string"
        }
      ],
      "stateMutability": "view",
      "type": "function"
    },
    {
      "inputs": [],
      "name": "owner",
      "outputs": [
        {
          "internalType": "address",
          "name": "",
          "type": "address"
        }
      ],
      "stateMutability": "view",
      "type": "function"
    },
    {
      "inputs": [
        {
          "internalType": "uint256",
          "name": "tokenId",
          "type": "uint256"
        }
      ],
      "name": "ownerOf",
      "outputs": [
        {
          "internalType": "address",
          "name": "",
          "type": "address"
        }
      ],
      "stateMutability": "view",
      "type": "function"
    },
    {
      "inputs": [
        {
          "internalType": "uint256",
          "name": "",
          "type": "uint256"
        }
      ],
      "name": "pets",
      "outputs": [
        {
          "internalType": "string",
          "name": "name",
          "type": "string"
        },
        {
          "internalType": "uint256",
          "name": "birthDate",
          "type": "uint256"
        },
        {
          "internalType": "uint256",
          "name": "lastUpdatedBlock",
          "type": "uint256"
        },
        {
          "internalType": "enum Evolvagotchi.EvolutionStage",
          "name": "evolutionStage",
          "type": "uint8"
        },
        {
          "internalType": "uint8",
          "name": "happiness",
          "type": "uint8"
        },
        {
          "internalType": "uint8",
          "name": "hunger",
          "type": "uint8"
        },
        {
          "internalType": "uint8",
          "name": "health",
          "type": "uint8"
        }
      ],
      "stateMutability": "view",
      "type": "function"
    },
    {
      "inputs": [
        {
          "internalType": "uint256",
          "name": "tokenId",
          "type": "uint256"
        }
      ],
      "name": "play",
      "outputs": [],
      "stateMutability": "nonpayable",
      "type": "function"
    },
    {
      "inputs": [],
      "name": "renounceOwnership",
      "outputs": [],
      "stateMutability": "nonpayable",
      "type": "function"
    },
    {
      "inputs": [
        {
          "internalType": "address",
          "name": "from",
          "type": "address"
        },
        {
          "internalType": "address",
          "name": "to",
          "type": "address"
        },
        {
          "internalType": "uint256",
          "name": "tokenId",
          "type": "uint256"
        }
      ],
      "name": "safeTransferFrom",
      "outputs": [],
      "stateMutability": "nonpayable",
      "type": "function"
    },
    {
      "inputs": [
        {
          "internalType": "address",
          "name": "from",
          "type": "address"
        },
        {
          "internalType": "address",
          "name": "to",
          "type": "address"
        },
        {
          "internalType": "uint256",
          "name": "tokenId",
          "type": "uint256"
        },
        {
          "internalType": "bytes",
          "name": "data",
          "type": "bytes"
        }
      ],
      "name": "safeTransferFrom",
      "outputs": [],
      "stateMutability": "nonpayable",
      "type": "function"
    },
    {
      "inputs": [
        {
          "internalType": "address",
          "name": "operator",
          "type": "address"
        },
        {
          "internalType": "bool",
          "name": "approved",
          "type": "bool"
        }
      ],
      "name": "setApprovalForAll",
      "outputs": [],
      "stateMutability": "nonpayable",
      "type": "function"
    },
    {
      "inputs": [
        {
          "internalType": "bytes4",
          "name": "interfaceId",
          "type": "bytes4"
        }
      ],
      "name": "supportsInterface",
      "outputs": [
        {
          "internalType": "bool",
          "name": "",
          "type": "bool"
        }
      ],
      "stateMutability": "view",
      "type": "function"
    },
    {
      "inputs": [],
      "name": "symbol",
      "outputs": [
        {
          "internalType": "string",
          "name": "",
          "type": "string"
        }
      ],
      "stateMutability": "view",
      "type": "function"
    },
    {
      "inputs": [
        {
          "internalType": "uint256",
          "name": "tokenId",
          "type": "uint256"
        }
      ],
      "name": "tokenURI",
      "outputs": [
        {
          "internalType": "string",
          "name": "",
          "type": "string"
        }
      ],
      "stateMutability": "view",
      "type": "function"
    },
    {
      "inputs": [
        {
          "internalType": "address",
          "name": "from",
          "type": "address"
        },
        {
          "internalType": "address",
          "name": "to",
          "type": "address"
        },
        {
          "internalType": "uint256",
          "name": "tokenId",
          "type": "uint256"
        }
      ],
      "name": "transferFrom",
      "outputs": [],
      "stateMutability": "nonpayable",
      "type": "function"
    },
    {
      "inputs": [
        {
          "internalType": "address",
          "name": "newOwner",
          "type": "address"
        }
      ],
      "name": "transferOwnership",
      "outputs": [],
      "stateMutability": "nonpayable",
      "type": "function"
    },
    {
      "inputs": [
        {
          "internalType": "uint256",
          "name": "tokenId",
          "type": "uint256"
        }
      ],
      "name": "updateState",
      "outputs": [],
      "stateMutability": "nonpayable",
      "type": "function"
    },
    {
      "inputs": [
        {
          "internalType": "uint256",
          "name": "tokenId",
          "type": "uint256"
        },
        {
          "internalType": "string",
          "name": "newTokenURI",
          "type": "string"
        }
      ],
      "name": "updateTokenURI",
      "outputs": [],
      "stateMutability": "nonpayable",
      "type": "function"
    },
    {
      "inputs": [],
      "name": "withdraw",
      "outputs": [],
      "stateMutability": "nonpayable",
      "type": "function"
    }
  ],
  "bytecode": "0x60806040523480156200001157600080fd5b50336040518060400160405280600c81526020016b45766f6c7661676f7463686960a01b8152506040518060400160405280600581526020016422ab27a62b60d91b8152508160009081620000679190620001b1565b506001620000768282620001b1565b5050506001600160a01b038116620000a857604051631e4fbdf760e01b81526000600482015260240160405180910390fd5b620000b381620000ba565b506200027d565b600780546001600160a01b038381166001600160a01b0319831681179093556040519116919082907f8be0079c531659141344cd1fd0a4f28419497f9722a3daafe3b4186f6b6457e090600090a35050565b634e487b7160e01b600052604160045260246000fd5b600181811c908216806200013757607f821691505b6020821081036200015857634e487b7160e01b600052602260045260246000fd5b50919050565b601f821115620001ac57600081815260208120601f850160051c81016020861015620001875750805b601f850160051c820191505b81811015620001a85782815560010162000193565b5050505b505050565b81516001600160401b03811115620001cd57620001cd6200010c565b620001e581620001de845462000122565b846200015e565b602080601f8311600181146200021d5760008415620002045750858301515b600019600386901b1c1916600185901b178555620001a8565b600085815260208120601f198616915b828110156200024e578886015182559484019460019091019084016200022d565b50858210156200026d5787850151600019600388901b60f8161c191681555b5050505050600190811b01905550565b612b9e806200028d6000396000f3fe6080604052600436106102045760003560e01c8063715018a611610118578063c87b56dd116100a0578063dbd134e41161006f578063dbd134e4146105e7578063e985e9c5146105fe578063f2fde38b1461061e578063f59dfdfb1461063e578063f7930ba01461065157600080fd5b8063c87b56dd14610561578063cc8a55e214610581578063cfb869bf146105a1578063d85d3d27146105d457600080fd5b8063a22cb465116100e7578063a22cb465146104c2578063a241bf95146104e2578063b88d4fde146104f9578063ba8cd53214610519578063c662e4811461054657600080fd5b8063715018a6146104645780638da5cb5b1461047957806395d89b411461049757806397510a2c146104ac57600080fd5b806325fddd761161019b5780636352211e1161016a5780636352211e146103a95780636898f82b146103c957806369c3f316146103e95780636c3cde151461041d57806370a082311461044457600080fd5b806325fddd761461033a5780633ccfd60b1461035e57806342842e0e146103735780634e96dfe41461039357600080fd5b80630fd852f4116101d75780630fd852f4146102ba578063147fde11146102da57806318e97fd1146102fa57806323b872dd1461031a57600080fd5b806301ffc9a71461020957806306fdde031461023e578063081812fc14610260578063095ea7b314610298575b600080fd5b34801561021557600080fd5b50610229610224366004612330565b61066c565b60405190151581526020015b60405180910390f35b34801561024a57600080fd5b5061025361067d565b604051610235919061239d565b34801561026c57600080fd5b5061028061027b3660046123b0565b61070f565b6040516001600160a01b039091168152602001610235565b3480156102a457600080fd5b506102b86102b33660046123e5565b610738565b005b3480156102c657600080fd5b506102b86102d5366004612421565b610747565b3480156102e657600080fd5b506102b86102f536600461246e565b610907565b34801561030657600080fd5b506102b861031536600461258f565b610991565b34801561032657600080fd5b506102b86103353660046125d6565b6109cb565b34801561034657600080fd5b506103506103e881565b604051908152602001610235565b34801561036a57600080fd5b506102b8610a56565b34801561037f57600080fd5b506102b861038e3660046125d6565b610a9a565b34801561039f57600080fd5b506103506161a881565b3480156103b557600080fd5b506102806103c43660046123b0565b610ab5565b3480156103d557600080fd5b506102b86103e43660046123b0565b610ac0565b3480156103f557600080fd5b506104096104043660046123b0565b610b8a565b60405161023598979695949392919061264a565b34801561042957600080fd5b50610432603c81565b60405160ff9091168152602001610235565b34801561045057600080fd5b5061035061045f3660046126a4565b610d78565b34801561047057600080fd5b506102b8610dc0565b34801561048557600080fd5b506007546001600160a01b0316610280565b3480156104a357600080fd5b50610253610dd4565b3480156104b857600080fd5b506103506101f481565b3480156104ce57600080fd5b506102b86104dd3660046126bf565b610de3565b3480156104ee57600080fd5b50610350620493e081565b34801561050557600080fd5b506102b86105143660046126fb565b610dee565b34801561052557600080fd5b506105396105343660046126a4565b610e06565b6040516102359190612777565b34801561055257600080fd5b50610350662386f26fc1000081565b34801561056d57600080fd5b5061025361057c3660046123b0565b610ed3565b34801561058d57600080fd5b506102b861059c3660046123b0565b610ede565b3480156105ad57600080fd5b506105c16105bc3660046123b0565b6111da565b60405161023597969594939291906127bb565b6103506105e2366004612810565b6112ab565b3480156105f357600080fd5b50610350620186a081565b34801561060a57600080fd5b50610229610619366004612845565b6114f0565b34801561062a57600080fd5b506102b86106393660046126a4565b61151e565b6102b861064c3660046123b0565b611559565b34801561065d57600080fd5b5061035066038d7ea4c6800081565b6000610677826116b6565b92915050565b60606000805461068c90612878565b80601f01602080910402602001604051908101604052809291908181526020018280546106b890612878565b80156107055780601f106106da57610100808354040283529160200191610705565b820191906000526020600020905b8154815290600101906020018083116106e857829003601f168201915b5050505050905090565b600061071a826116db565b506000828152600460205260409020546001600160a01b0316610677565b610743828233611714565b5050565b3361075185610ab5565b6001600160a01b0316146107805760405162461bcd60e51b8152600401610777906128b2565b60405180910390fd5b61078984610ede565b60008481526009602052604081209084900b156107ea5760038101546000906107bd9086830b90610100900460ff166128ee565b90506107cc8160006064611721565b8260030160016101000a81548160ff021916908360ff160217905550505b8260000b6000146108405760038101546000906108139085830b9062010000900460ff166128ee565b90506108228160006064611721565b8260030160026101000a81548160ff021916908360ff160217905550505b8160000b60001461089757600381015460009061086a9084830b906301000000900460ff166128ee565b90506108798160006064611721565b8260030160036101000a81548160ff021916908360ff160217905550505b60038101546040805160ff6201000084048116825261010084048116602083015263010000009093049092169082015285907f2578de5eedb680901ff951a8db21779fb53163dcc3bab6d7ec00655864affd50906060015b60405180910390a261090085611757565b5050505050565b60005b8181101561098c57600061094b84848481811061092957610929612911565b905060200201356000908152600260205260409020546001600160a01b031690565b6001600160a01b03161461097a5761097a83838381811061096e5761096e612911565b90506020020135610ede565b8061098481612927565b91505061090a565b505050565b3361099b83610ab5565b6001600160a01b0316146109c15760405162461bcd60e51b8152600401610777906128b2565b61074382826119cf565b6001600160a01b0382166109f557604051633250574960e11b815260006004820152602401610777565b6000610a02838333611a1f565b9050836001600160a01b0316816001600160a01b031614610a50576040516364283d7b60e01b81526001600160a01b0380861660048301526024820184905282166044820152606401610777565b50505050565b610a5e611b18565b6007546040516001600160a01b03909116904780156108fc02916000818181858888f19350505050158015610a97573d6000803e3d6000fd5b50565b61098c83838360405180602001604052806000815250610dee565b6000610677826116db565b33610aca82610ab5565b6001600160a01b031614610af05760405162461bcd60e51b8152600401610777906128b2565b610af981610ede565b60008181526009602052604090206003810154610b2a90610b2390610100900460ff166019612940565b6064611b45565b60038201805461ff00191661010060ff938416810291909117918290556040519104909116815282907f66d18997994dfce44b56690f5821600c9e6207285b3068653b5b11df35549be7906020015b60405180910390a261074382611757565b6060600080808080808080610bb48a6000908152600260205260409020546001600160a01b031690565b6001600160a01b031603610bff5760405162461bcd60e51b815260206004820152601260248201527114195d08191bd95cc81b9bdd08195e1a5cdd60721b6044820152606401610777565b600089815260096020526040808220815160e08101909252805482908290610c2690612878565b80601f0160208091040260200160405190810160405280929190818152602001828054610c5290612878565b8015610c9f5780601f10610c7457610100808354040283529160200191610c9f565b820191906000526020600020905b815481529060010190602001808311610c8257829003601f168201915b5050509183525050600182015460208201526002820154604082015260038083015460609092019160ff1690811115610cda57610cda612612565b6003811115610ceb57610ceb612612565b81526003919091015460ff610100820481166020808501919091526201000083048216604085015263010000009092041660609092019190915281519082015191925090610d398143612953565b6060840151608085015160a086015160c08701516040880151610d5c9043612953565b9850985098509850985098509850985050919395975091939597565b60006001600160a01b038216610da4576040516322718ad960e21b815260006004820152602401610777565b506001600160a01b031660009081526003602052604090205490565b610dc8611b18565b610dd26000611b5b565b565b60606001805461068c90612878565b610743338383611bad565b610df98484846109cb565b610a503385858585611c4c565b60606000610e1383610d78565b905060008167ffffffffffffffff811115610e3057610e306124e3565b604051908082528060200260200182016040528015610e59578160200160208202803683370190505b5090506000805b600854811015610ec9576000818152600260205260409020546001600160a01b03878116911603610eb75780838381518110610e9e57610e9e612911565b602090810291909101015281610eb381612927565b9250505b80610ec181612927565b915050610e60565b5090949350505050565b606061067782611d76565b6000818152600260205260409020546001600160a01b0316610f375760405162461bcd60e51b815260206004820152601260248201527114195d08191bd95cc81b9bdd08195e1a5cdd60721b6044820152606401610777565b60008181526009602052604081206002810154909190610f579043612953565b905080600003610f6657505050565b6000610f746101f48361297c565b90506000610f846103e88461297c565b90508115610fc6576003840154610fa990610b2390849062010000900460ff16612940565b8460030160026101000a81548160ff021916908360ff1602179055505b801561102a576003840154610100900460ff168110610ff15760038401805461ff001916905561102a565b808460030160018282829054906101000a900460ff166110119190612990565b92506101000a81548160ff021916908360ff1602179055505b600384015460506201000090910460ff16118015611055575060038401546301000000900460ff1615155b156110f257600384015460009060059061107a9060509062010000900460ff16612990565b61108491906129a9565b600386015460ff9182169250630100000090041681106110b85760038501805463ff000000191663010000001790556110f0565b600385810180548392906110d79084906301000000900460ff16612990565b92506101000a81548160ff021916908360ff1602179055505b505b6003840154601e6201000090910460ff1610801561111d57506003840154604661010090910460ff16115b8015611138575060038401546064630100000090910460ff16105b1561117857600384015461115b90610b23906301000000900460ff166001612940565b8460030160036101000a81548160ff021916908360ff1602179055505b43600285015560038401546040805160ff6201000084048116825261010084048116602083015263010000009093049092169082015285907f2578de5eedb680901ff951a8db21779fb53163dcc3bab6d7ec00655864affd50906060016108ef565b6009602052600090815260409020805481906111f590612878565b80601f016020809104026020016040519081016040528092919081815260200182805461122190612878565b801561126e5780601f106112435761010080835404028352916020019161126e565b820191906000526020600020905b81548152906001019060200180831161125157829003601f168201915b50505050600183015460028401546003909401549293909290915060ff808216916101008104821691620100008204811691630100000090041687565b6000662386f26fc100003410156112fb5760405162461bcd60e51b8152602060048201526014602482015273125b9cdd59999a58da595b9d081c185e5b595b9d60621b6044820152606401610777565b6000825111801561130e57506014825111155b6113505760405162461bcd60e51b8152602060048201526013602482015272092dcecc2d8d2c840dcc2daca40d8cadccee8d606b1b6044820152606401610777565b600880546000918261136183612927565b9190505590506113713382611e87565b6040518060e00160405280848152602001438152602001438152602001600060038111156113a1576113a1612612565b815260646020808301829052600060408085018290526060909401929092528482526009905220815181906113d69082612a11565b50602082015181600101556040820151816002015560608201518160030160006101000a81548160ff0219169083600381111561141557611415612612565b021790555060808201516003909101805460a084015160c09094015160ff90811663010000000263ff00000019958216620100000262ff00001992909516610100029190911662ffff0019909216919091179290921792909216179055604080518082019091526014815273697066733a2f2f516d4567674d6574616461746160601b60208201526114a89082906119cf565b336001600160a01b0316817f4639c237376208a6488772ae52ae9263188bd41b4cd0362b4b921b6a02f45c19856040516114e2919061239d565b60405180910390a392915050565b6001600160a01b03918216600090815260056020908152604080832093909416825291909152205460ff1690565b611526611b18565b6001600160a01b03811661155057604051631e4fbdf760e01b815260006004820152602401610777565b610a9781611b5b565b3361156382610ab5565b6001600160a01b0316146115895760405162461bcd60e51b8152600401610777906128b2565b66038d7ea4c680003410156115d75760405162461bcd60e51b8152602060048201526014602482015273125b9cdd59999a58da595b9d081c185e5b595b9d60621b6044820152606401610777565b6115e081610ede565b6000818152600960205260409020600381015460286201000090910460ff161161160b576000611625565b60038101546116259060289062010000900460ff16612990565b60038201805462ff000019166201000060ff93841602179081905561165591610b2391610100900416600f612940565b60038201805461ff00191661010060ff93841681029190911791829055604080516201000084048516815291909204909216602083015283917f279ab04a7f34ca05d3af821a3f0fc208b5f019af4142792aa76f55c4c4f07ccc9101610b79565b60006001600160e01b03198216632483248360e11b1480610677575061067782611ea1565b6000818152600260205260408120546001600160a01b03168061067757604051637e27328960e01b815260048101849052602401610777565b61098c8383836001611ef1565b60008260010b8460010b1215611738575081611750565b8160010b8460010b131561174d575080611750565b50825b9392505050565b600081815260096020526040812060018101549091906117779043612953565b9050600060038084015460ff169081111561179457611794612612565b1480156117a357506161a88110155b1561182c5760038201805460ff19166001179055604080518082019091526015815274697066733a2f2f516d426162794d6574616461746160581b60208201526117ee9084906119cf565b827f9945561603c6405164c7786f60dcebbdd35082cbf57870f1062e2027d5f55fe4600160405161181f9190612ad1565b60405180910390a2505050565b600160038084015460ff169081111561184757611847612612565b1480156118575750620186a08110155b801561187157506003820154603c61010090910460ff1610155b156118ed5760038201805460ff19166002179055604080518082019091526015815274697066733a2f2f516d5465656e4d6574616461746160581b60208201526118bc9084906119cf565b827f9945561603c6405164c7786f60dcebbdd35082cbf57870f1062e2027d5f55fe4600260405161181f9190612ad1565b600260038084015460ff169081111561190857611908612612565b1480156119185750620493e08110155b801561193257506003820154603c61010090910460ff1610155b801561194e575060038201546050630100000090910460ff1610155b1561098c576003828101805460ff1916600183021790555061199e8360405180604001604052806016815260200175697066733a2f2f516d4164756c744d6574616461746160501b8152506119cf565b827f9945561603c6405164c7786f60dcebbdd35082cbf57870f1062e2027d5f55fe4600360405161181f9190612ad1565b60008281526006602052604090206119e78282612a11565b506040518281527ff8e1a15aba9398e019f0b49df1a4fde98ee17ae345cb5f6b5e2c27f5033e8ce79060200160405180910390a15050565b6000828152600260205260408120546001600160a01b0390811690831615611a4c57611a4c818486611ff7565b6001600160a01b03811615611a8a57611a69600085600080611ef1565b6001600160a01b038116600090815260036020526040902080546000190190555b6001600160a01b03851615611ab9576001600160a01b0385166000908152600360205260409020805460010190555b60008481526002602052604080822080546001600160a01b0319166001600160a01b0389811691821790925591518793918516917fddf252ad1be2c89b69c2b068fc378daa952ba7f163c4a11628f55a4df523b3ef91a4949350505050565b6007546001600160a01b03163314610dd25760405163118cdaa760e01b8152336004820152602401610777565b6000818310611b545781611750565b5090919050565b600780546001600160a01b038381166001600160a01b0319831681179093556040519116919082907f8be0079c531659141344cd1fd0a4f28419497f9722a3daafe3b4186f6b6457e090600090a35050565b6001600160a01b038216611bdf57604051630b61174360e31b81526001600160a01b0383166004820152602401610777565b6001600160a01b03838116600081815260056020908152604080832094871680845294825291829020805460ff191686151590811790915591519182527f17307eab39ab6107e8899845ad3d59bd9653f200f220920489ca2b5937696c31910160405180910390a3505050565b6001600160a01b0383163b1561090057604051630a85bd0160e11b81526001600160a01b0384169063150b7a0290611c8e908890889087908790600401612adf565b6020604051808303816000875af1925050508015611cc9575060408051601f3d908101601f19168201909252611cc691810190612b1c565b60015b611d32573d808015611cf7576040519150601f19603f3d011682016040523d82523d6000602084013e611cfc565b606091505b508051600003611d2a57604051633250574960e11b81526001600160a01b0385166004820152602401610777565b805160208201fd5b6001600160e01b03198116630a85bd0160e11b14611d6e57604051633250574960e11b81526001600160a01b0385166004820152602401610777565b505050505050565b6060611d81826116db565b5060008281526006602052604081208054611d9b90612878565b80601f0160208091040260200160405190810160405280929190818152602001828054611dc790612878565b8015611e145780601f10611de957610100808354040283529160200191611e14565b820191906000526020600020905b815481529060010190602001808311611df757829003601f168201915b505050505090506000611e3260408051602081019091526000815290565b90508051600003611e44575092915050565b815115611e76578082604051602001611e5e929190612b39565b60405160208183030381529060405292505050919050565b611e7f8461205b565b949350505050565b6107438282604051806020016040528060008152506120cf565b60006001600160e01b031982166380ac58cd60e01b1480611ed257506001600160e01b03198216635b5e139f60e01b145b8061067757506301ffc9a760e01b6001600160e01b0319831614610677565b8080611f0557506001600160a01b03821615155b15611fc7576000611f15846116db565b90506001600160a01b03831615801590611f415750826001600160a01b0316816001600160a01b031614155b8015611f545750611f5281846114f0565b155b15611f7d5760405163a9fbf51f60e01b81526001600160a01b0384166004820152602401610777565b8115611fc55783856001600160a01b0316826001600160a01b03167f8c5be1e5ebec7d5bd14f71427d1e84f3dd0314c0f7b2291e5b200ac8c7c3b92560405160405180910390a45b505b5050600090815260046020526040902080546001600160a01b0319166001600160a01b0392909216919091179055565b6120028383836120e7565b61098c576001600160a01b03831661203057604051637e27328960e01b815260048101829052602401610777565b60405163177e802f60e01b81526001600160a01b038316600482015260248101829052604401610777565b6060612066826116db565b50600061207e60408051602081019091526000815290565b9050600081511161209e5760405180602001604052806000815250611750565b806120a88461214a565b6040516020016120b9929190612b39565b6040516020818303038152906040529392505050565b6120d983836121dd565b61098c336000858585611c4c565b60006001600160a01b03831615801590611e7f5750826001600160a01b0316846001600160a01b03161480612121575061212184846114f0565b80611e7f5750506000908152600460205260409020546001600160a01b03908116911614919050565b6060600061215783612242565b600101905060008167ffffffffffffffff811115612177576121776124e3565b6040519080825280601f01601f1916602001820160405280156121a1576020820181803683370190505b5090508181016020015b600019016f181899199a1a9b1b9c1cb0b131b232b360811b600a86061a8153600a85049450846121ab57509392505050565b6001600160a01b03821661220757604051633250574960e11b815260006004820152602401610777565b600061221583836000611a1f565b90506001600160a01b0381161561098c576040516339e3563760e11b815260006004820152602401610777565b60008072184f03e93ff9f4daa797ed6e38ed64bf6a1f0160401b83106122815772184f03e93ff9f4daa797ed6e38ed64bf6a1f0160401b830492506040015b6d04ee2d6d415b85acef810000000083106122ad576d04ee2d6d415b85acef8100000000830492506020015b662386f26fc1000083106122cb57662386f26fc10000830492506010015b6305f5e10083106122e3576305f5e100830492506008015b61271083106122f757612710830492506004015b60648310612309576064830492506002015b600a83106106775760010192915050565b6001600160e01b031981168114610a9757600080fd5b60006020828403121561234257600080fd5b81356117508161231a565b60005b83811015612368578181015183820152602001612350565b50506000910152565b6000815180845261238981602086016020860161234d565b601f01601f19169290920160200192915050565b6020815260006117506020830184612371565b6000602082840312156123c257600080fd5b5035919050565b80356001600160a01b03811681146123e057600080fd5b919050565b600080604083850312156123f857600080fd5b612401836123c9565b946020939093013593505050565b8035600081900b81146123e057600080fd5b6000806000806080858703121561243757600080fd5b843593506124476020860161240f565b92506124556040860161240f565b91506124636060860161240f565b905092959194509250565b6000806020838503121561248157600080fd5b823567ffffffffffffffff8082111561249957600080fd5b818501915085601f8301126124ad57600080fd5b8135818111156124bc57600080fd5b8660208260051b85010111156124d157600080fd5b60209290920196919550909350505050565b634e487b7160e01b600052604160045260246000fd5b600067ffffffffffffffff80841115612514576125146124e3565b604051601f8501601f19908116603f0116810190828211818310171561253c5761253c6124e3565b8160405280935085815286868601111561255557600080fd5b858560208301376000602087830101525050509392505050565b600082601f83011261258057600080fd5b611750838335602085016124f9565b600080604083850312156125a257600080fd5b82359150602083013567ffffffffffffffff8111156125c057600080fd5b6125cc8582860161256f565b9150509250929050565b6000806000606084860312156125eb57600080fd5b6125f4846123c9565b9250612602602085016123c9565b9150604084013590509250925092565b634e487b7160e01b600052602160045260246000fd5b6004811061264657634e487b7160e01b600052602160045260246000fd5b9052565b600061010080835261265e8184018c612371565b91505088602083015287604083015261267a6060830188612628565b60ff958616608083015293851660a08201529190931660c082015260e00191909152949350505050565b6000602082840312156126b657600080fd5b611750826123c9565b600080604083850312156126d257600080fd5b6126db836123c9565b9150602083013580151581146126f057600080fd5b809150509250929050565b6000806000806080858703121561271157600080fd5b61271a856123c9565b9350612728602086016123c9565b925060408501359150606085013567ffffffffffffffff81111561274b57600080fd5b8501601f8101871361275c57600080fd5b61276b878235602084016124f9565b91505092959194509250565b6020808252825182820181905260009190848201906040850190845b818110156127af57835183529284019291840191600101612793565b50909695505050505050565b60e0815260006127ce60e083018a612371565b90508760208301528660408301526127e96060830187612628565b60ff8516608083015260ff841660a083015260ff831660c083015298975050505050505050565b60006020828403121561282257600080fd5b813567ffffffffffffffff81111561283957600080fd5b611e7f8482850161256f565b6000806040838503121561285857600080fd5b612861836123c9565b915061286f602084016123c9565b90509250929050565b600181811c9082168061288c57607f821691505b6020821081036128ac57634e487b7160e01b600052602260045260246000fd5b50919050565b6020808252600c908201526b139bdd081e5bdd5c881c195d60a21b604082015260600190565b634e487b7160e01b600052601160045260246000fd5b600181810b9083900b01617fff8113617fff1982121715610677576106776128d8565b634e487b7160e01b600052603260045260246000fd5b600060018201612939576129396128d8565b5060010190565b80820180821115610677576106776128d8565b81810381811115610677576106776128d8565b634e487b7160e01b600052601260045260246000fd5b60008261298b5761298b612966565b500490565b60ff8281168282160390811115610677576106776128d8565b600060ff8316806129bc576129bc612966565b8060ff84160491505092915050565b601f82111561098c57600081815260208120601f850160051c810160208610156129f25750805b601f850160051c820191505b81811015611d6e578281556001016129fe565b815167ffffffffffffffff811115612a2b57612a2b6124e3565b612a3f81612a398454612878565b846129cb565b602080601f831160018114612a745760008415612a5c5750858301515b600019600386901b1c1916600185901b178555611d6e565b600085815260208120601f198616915b82811015612aa357888601518255948401946001909101908401612a84565b5085821015612ac15787850151600019600388901b60f8161c191681555b5050505050600190811b01905550565b602081016106778284612628565b6001600160a01b0385811682528416602082015260408101839052608060608201819052600090612b1290830184612371565b9695505050505050565b600060208284031215612b2e57600080fd5b81516117508161231a565b60008351612b4b81846020880161234d565b835190830190612b5f81836020880161234d565b0194935050505056fea264697066735822122047fb275c1c0cb22c72e3a1664a77cdd2dba1450096374eb4b6904daf129b7dac64736f6c63430008140033",
  "linkReferences": {},
  "deployedLinkReferences": {}
}